:020000040800F2
:1000000000000120E5020008350300083503000860
:100010003503000835030008350300080000000020
:100020000000000000000000000000003503000890
:100030003503000800000000350300083503000800
:1000400000000000350300083503000835030008F0
:1000500035030008350300083503000835030008A0
:100060003503000835030008350300083503000890
:100070003503000835030008350300083503000880
:1000800035030008350300083503000800000000B0
:100090000000000000000000000000003503000820
:1000A0003503000835030008350300083503000850
:1000B0003503000835030008350300083503000840
:1000C0003503000835030008350300083503000830
:1000D0003503000835030008350300080000000060
:1000E0003503000835030008350300080000000050
:1000F00000000000000000000000000035030008C0
:10010000000000003503000835030008350300082F
:1001100000000000000000000000000000000000DF
:1001200035030008350300083503000835030008CF
:10013000350300080000000000000000000000007F
:10014000000000000000000000000000350300086F
:10015000350300083503000835030008350300089F
:10016000350300083503000800000000000000000F
:10017000000000000000000000000000000000007F
:10018000000000000000000000000000000000006F
:04019000350300082B
:1001940010B5054C237833B9044B13B10448AFF3BD
:1001A40000800123237010BD000000200000000027
:1001B4008003000808B5034B1BB103490348AFF3A0
:1001C400008008BD00000000040000208003000837
:1001D40080B483B000AF00237B6002E07B6801330E
:1001E4007B607B68044A9342F8DD00BF00BF0C3794
:1001F400BD465DF8047B70473F420F0080B500AFF9
:10020400354B1B6B344A43F001031363334B1B68B8
:10021400324A43F010031360304B1B682F4A43F0FB
:10022400400313602D4B1B682C4A43F48073136006
:100234002A4B1B68294A23F440131360274B1B687D
:10024400264A43F480231360244B5B69234A43F01A
:1002540004035361214B5B69204A43F00403536157
:10026400FFF7B6FF1D4B5B691C4A23F0040353617F
:10027400FFF7AEFF194B5B69184A43F0080353615B
:10028400FFF7A6FF154B5B69144A23F0080353617B
:10029400FFF79EFF114B5B69104A43F01003536153
:1002A400FFF796FF0D4B5B690C4A23F01003536173
:1002B4000A4B1B6903F48063002B06D0074B5B6970
:1002C400064A43F400735361C4E7044B5B69034A71
:1002D40023F400735361BDE700380240000002407C
:1002E4000D488546AFF300800C480D490D4A0023A4
:1002F40002E0D458C4500433C4188C42F9D30A4AD7
:100304000A4C002301E013600432A242FBD300F044
:1003140011F8FFF773FFFEE7000001200000002042
:1003240000000020A0030008000000201C000020A2
:10033400FEE7000070B50D4D0D4C641BA4100026A3
:10034400A64209D10B4D0C4C00F018F8641BA41004
:100354000026A64205D170BD55F8043B98470136E6
:10036400EEE755F8043B98470136F2E79803000896
:1003740098030008980300089C030008F8B500BF20
:10038400F8BC08BC9E467047F8B500BFF8BC08BC72
:040394009E467047CA
:04039800B90100089F
:04039C0095010008BF
:04000005080002E508
:00000001FF
