:020000040800F2
:1000000000000120A9020008F9020008F902000816
:10001000F9020008F9020008F902000800000000D7
:10002000000000000000000000000000F9020008CD
:10003000F902000800000000F9020008F9020008B7
:1000400000000000F9020008F9020008F9020008A7
:10005000F9020008F9020008F9020008F902000894
:10006000F9020008F9020008F9020008F902000884
:10007000F9020008F9020008F9020008F902000874
:10008000F9020008F9020008F90200080000000067
:10009000000000000000000000000000F90200085D
:1000A000F9020008F9020008F9020008F902000844
:1000B000F9020008F9020008F9020008F902000834
:1000C000F9020008F9020008F9020008F902000824
:1000D000F9020008F9020008F90200080000000017
:1000E000F9020008F9020008F90200080000000007
:1000F000000000000000000000000000F9020008FD
:1001000000000000F9020008F9020008F9020008E6
:1001100000000000000000000000000000000000DF
:10012000F9020008F9020008F9020008F9020008C3
:10013000F9020008000000000000000000000000BC
:10014000000000000000000000000000F9020008AC
:10015000F9020008F9020008F9020008F902000893
:10016000F9020008F9020008000000000000000089
:10017000000000000000000000000000000000007F
:10018000000000000000000000000000000000006F
:04019000F902000868
:1001940010B5054C237833B9044B13B10448AFF3BD
:1001A40000800123237010BD000000200000000027
:1001B4004403000808B5034B1BB103490348AFF3DC
:1001C400008008BD00000000040000204403000873
:1001D40080B483B000AF00237B6002E07B6801330E
:1001E4007B607B68044A9342F8DD00BF00BF0C3794
:1001F400BD465DF8047B70473F420F0080B500AFF9
:10020400264B1B6B254A43F001031363244B1B68E5
:10021400234A43F010031360214B1B68204A43F028
:10022400400313601E4B1B681D4A43F48073136024
:100234001B4B5B691A4A43F004035361184B5B6917
:10024400174A43F004035361FFF7C2FF144B5B6981
:10025400134A23F004035361FFF7BAFF104B5B69A1
:100264000F4A43F008035361FFF7B2FF0C4B5B697D
:100274000B4A23F008035361FFF7AAFF084B5B699D
:10028400074A43F010035361FFF7A2FF044B5B6975
:10029400034A23F01003536100BFCFE70038024044
:1002A400000002400D488546AFF300800C480D491C
:1002B4000D4A002302E0D458C4500433C4188C42BD
:1002C400F9D30A4A0A4C002301E013600432A24223
:1002D400FBD300F011F8FFF791FFFEE700000120C7
:1002E400000000200000002064030008000000203B
:1002F4001C000020FEE7000070B50D4D0D4C641B82
:10030400A4100026A64209D10B4D0C4C00F018F89D
:10031400641BA4100026A64205D170BD55F8043B09
:1003240098470136EEE755F8043B98470136F2E763
:100334005C0300085C0300085C0300086003000819
:10034400F8B500BFF8BC08BC9E467047F8B500BFBE
:08035400F8BC08BC9E4670478E
:04035C00B9010008DB
:0403600095010008FB
:04000005080002A944
:00000001FF
